:020000020000FC
:0C0000000C943C0B0C94DE0C0C94720C65
:1000E4001E1F2021222324262728292A2B2C2D32A7
:1000F400373C41464B5055565758595A5B5C5D5EE8
:100104005F606162636465666768696A6B6C6D6E83
:100114006F70716C67625D58534E49443F3A3500C5
:100124001F202122232425262728292A2B2C2D2E63
:1001340033383D42474C51565758595A5B5C5D5EC3
:100144005F606162636465666768696A6B6C6D6E43
:100154006F7071726D68635E59544F4A45403B3607
:10016400202122232425262728292A2B2C2D2E2F13
:1001740034393E43484D525758595A5B5C5D5E5F73
:10018400606162636465666768696A6B6C6D6E6FF3
:10019400707172736E69645F5A55504B46413C37B7
:1001A4002122232425262728292A2B2C2D2E2F30C3
:1001B400353A3F44494E5358595A5B5C5D5E5F6023
:1001C4006162636465666768696A6B6C6D6E6F70A3
:1001D400717273746F6A65605B56514C47423D3867
:1001E40022232425262728292A2B2C2D2E2F303173
:1001F400363B40454A4F54595A5B5C5D5E5F6061D3
:1002040062636465666768696A6B6C6D6E6F707152
:1002140072737475706B66615C57524D48433E3916
:10022400232425262728292A2B2C2D2E2F30313222
:10023400373C41464B50555A5B5C5D5E5F60616282
:10024400636465666768696A6B6C6D6E6F70717202
:1002540073747576716C67625D58534E49443F3AC6
:100264002425262728292A2B2C2D2E2F30313233D2
:10027400383D42474C51565B5C5D5E5F6061626332
:100284006465666768696A6B6C6D6E6F70717273B2
:1002940074757677726D68635E59544F4A45403B76
:1002A40025262728292A2B2C2D2E2F303132333482
:1002B400393E43484D52575C5D5E5F6061626364E2
:1002C40065666768696A6B6C6D6E6F707172737462
:1002D40075767778736E69645F5A55504B46413C26
:1002E400262728292A2B2C2D2E2F30313233343532
:1002F4003A3F44494E53585D5E5F60616263646592
:10030400666768696A6B6C6D6E6F70717273747511
:1003140076777879746F6A65605B56514C47423DD5
:100324002728292A2B2C2D2E2F30313233343536E1
:100334003B40454A4F54595E5F6061626364656641
:100344006768696A6B6C6D6E6F70717273747576C1
:100354007778797A75706B66615C57524D48433E85
:1003640028292A2B2C2D2E2F303132333435363791
:100374003C41464B50555A5F6061626364656667F1
:1003840068696A6B6C6D6E6F707172737475767771
:1003940078797A7B76716C67625D58534E49443F35
:1003A400292A2B2C2D2E2F30313233343536373841
:1003B4003D42474C51565B606162636465666768A1
:1003C400696A6B6C6D6E6F70717273747576777821
:1003D400797A7B7C77726D68635E59544F4A4540E5
:1003E4002A2B2C2D2E2F30313233343536373839F1
:1003F4003E43484D52575C61626364656667686951
:100404006A6B6C6D6E6F70717273747576777879D0
:100414007A7B7C7D78736E69645F5A55504B464194
:100424002B2C2D2E2F303132333435363738393AA0
:100434003F44494E53585D62636465666768696A00
:100444006B6C6D6E6F707172737475767778797A80
:100454007B7C7D7E79746F6A65605B56514C474244
:100464002C2D2E2F303132333435363738393A3B50
:1004740040454A4F54595E636465666768696A6BB0
:100484006C6D6E6F707172737475767778797A7B30
:100494007C7D7E7F7A75706B66615C57524D4843F4
:1004A400333435363738393A35363738393A3B3CD0
:1004B40041464B50555A5F6162636465666768697B
:1004C4006A6B6C6D6E6F7071727374757677787910
:1004D4007A7B7C7D78736E69645F5A55504B4641D4
:1004E4003A3B3C3D3E3F4041363738393A3B3C3D50
:1004F40042474C51565B605F606162636465666746
:1005040068696A6B6C6D6E6F7071727374757677EF
:1005140078797A7B76716C67625D58534E49443FB3
:1005240041424344454647483738393A3B3C3D3ECF
:1005340043484D52575C615D5E5F60616263646510
:10054400666768696A6B6C6D6E6F707172737475CF
:1005540076777879746F6A65605B56514C47423D93
:1005640048494A4B4C4D4E4F363738393A3B3C3D5F
:1005740042474C51565B605B5C5D5E5F60616263E9
:100584006465666768696A6B6C6D6E6F70717273AF
:1005940074757677726D68635E59544F4A45403B73
:1005A400414243444546474835363738393A3B3C5F
:1005B40041464B50555A5F595A5B5C5D5E5F6061C2
:1005C40062636465666768696A6B6C6D6E6F70718F
:1005D40072737475706B66615C57524D48433E3953
:1005E4003A3B3C3D3E3F40413435363738393A3B5F
:1005F40040454A4F54595E5758595A5B5C5D5E5F9B
:10060400606162636465666768696A6B6C6D6E6F6E
:10061400707172736E69645F5A55504B46413C3732
:10062400333435363738393A333435363738393A5E
:100634003F44494E53585D55565758595A5B5C5D73
:100644005E5F606162636465666768696A6B6C6D4E
:100654006E6F70716C67625D58534E49443F3A3512
:100664002C2D2E2F3031323332333435363738395E
:100674003E43484D52575C535455565758595A5B4C
:100684005C5D5E5F606162636465666768696A6B2E
:100694006C6D6E6F6A65605B56514C47423D3833F2
:1006A4002B2C2D2E2F30313231323334353637382E
:1006B4003D42474C51565B51525354555657585925
:1006C4005A5B5C5D5E5F606162636465666768690E
:1006D4006A6B6C6D68635E59544F4A45403B3631D2
:1006E4002A2B2C2D2E2F30313031323334353637FE
:1006F4003C41464B50555A4F5051525354555657FE
:1007040058595A5B5C5D5E5F6061626364656667ED
:1007140068696A6B66615C57524D48433E39342FB1
:10072400292A2B2C2D2E2F302F30313233343536CD
:100734003B40454A4F54594D4E4F505152535455D6
:10074400565758595A5B5C5D5E5F606162636465CD
:1007540066676869645F5A55504B46413C37322D91
:1007640028292A2B2C2D2E2F2E2F3031323334359D
:100774003A3F44494E53584B4C4D4E4F50515253AF
:100784005455565758595A5B5C5D5E5F60616263AD
:1007940064656667625D58534E49443F3A35302B71
:1007A4002728292A2B2C2D2E2D2E2F30313233346D
:1007B400393E43484D5257494A4B4C4D4E4F505188
:1007C40052535455565758595A5B5C5D5E5F60618D
:1007D40062636465605B56514C47423D38332E2951
:1007E400262728292A2B2C2D2C2D2E2F303132333D
:1007F400383D42474C51564748494A4B4C4D4E4F61
:10080400505152535455565758595A5B5C5D5E5F6C
:10081400606162635E59544F4A45403B36312C2730
:1008240025262728292A2B2C2B2C2D2E2F3031320C
:10083400373C41464B505545464748494A4B4C4D39
:100844004E4F505152535455565758595A5B5C5D4C
:100854005E5F60615C57524D48433E39342F2A2510
:100864002425262728292A2B2A2B2C2D2E2F3031DC
:10087400363B40454A4F54434445464748494A4B12
:100884004C4D4E4F505152535455565758595A5B2C
:100894005C5D5E5F5A55504B46413C37322D2823F0
:1008A4002728292A2B2C2D2E2E2F30313233343564
:1008B4003637383736353433323130454546474894
:1008C400494A4B4C4D4E4F5051525354555657581C
:1008D400595A5B5C5D5E5F6061403F3E3D3C3B3A24
:1008E4002A2B2C2D2E2F30312F3031323334353604
:1008F4003738393837363534333231434243444557
:10090400464748494A4B4C4D4E4F5051525354550B
:10091400565758595A5B5C5D5E41403F3E3D3C3BF7
:100924002D2E2F30313233343031323334353637A3
:1009340038393A3938373635343332413F40414219
:10094400434445464748494A4B4C4D4E4F505152FB
:10095400535455565758595A5B4241403F3E3D3CCB
:100964003031323334353637313233343536373843
:10097400393A3B3A393837363534333F3C3D3E3FDC
:10098400404142434445464748494A4B4C4D4E4FEB
:10099400505152535455565758434241403F3E3D9F
:1009A400333435363738393A3233343536373839E3
:1009B4003A3B3C3B3A3938373635343D393A3B3C9F
:1009C4003D3E3F404142434445464748494A4B4CDB
:1009D4004D4E4F50515253545544434241403F3E73
:1009E400363738393A3B3C3D333435363738393A83
:1009F4003B3C3D3C3B3A39383736353B3637383962
:100A04003A3B3C3D3E3F40414243444546474849CA
:100A14004A4B4C4D4E4F5051524544434241403F46
:100A2400393A3B3C3D3E3F403435363738393A3B22
:100A34003C3D3E3D3C3B3A39383736393334353624
:100A44003738393A3B3C3D3E3F40414243444546BA
:100A54004748494A4B4C4D4E4F464544434241401A
:100A64003C3D3E3F4041424335363738393A3B3CC2
:100A74003D3E3F3E3D3C3B3A3938373730313233E7
:100A84003435363738393A3B3C3D3E3F40414243AA
:100A94004445464748494A4B4C47464544434241EE
:100AA4003F40414243444546363738393A3B3C3D62
:100AB4003E3F403F3E3D3C3B3A3938352D2E2F30AA
:100AC4003132333435363738393A3B3C3D3E3F409A
:100AD40041424344454647484948474645444342C2
:100AE40042434445464748493F3E3D3C3B3A3938FA
:100AF40037363534333231302F2E2D2C2B2A2928FA
:100B040027262524232221202122232425262728A1
:100B14003F40414243444546473C3D3E3F3E3D3CC9
:100B240045464748494A4B4C3E3D3C3B3A393837A9
:100B3400363534333231302F2E2D2C2B2A292827C9
:100B4400262524232221201F202122232425262771
:100B54003D3E3F4041424344453F40414241403F86
:100B640048494A4B4C4D4E4F3D3C3B3A3938373659
:100B74003534333231302F2E2D2C2B2A2928272699
:100B84002524232221201F1E1F2021222324252641
:100B94003B3C3D3E3F404142434243444544434243
:100BA4004B4C4D4E4F5051523C3B3A393837363509
:100BB40034333231302F2E2D2C2B2A292827262569
:100BC40024232221201F1E1D1E1F20212223242511
:100BD400393A3B3C3D3E3F40414546474847464500
:100BE4004E4F5051525354553B3A393837363534B9
:100BF400333231302F2E2D2C2B2A29282726252439
:100C0400232221201F1E1D1C1D1E1F2021222324E0
:100C14003738393A3B3C3D3E3F48494A4B4A4948BC
:100C240051525354555657583A3938373635343368
:100C34003231302F2E2D2C2B2A2928272625242308
:100C44002221201F1E1D1C1B1C1D1E1F20212223B0
:100C540035363738393A3B3C3D4B4C4D4E4D4C4B79
:100C64005455565758595A5B393837363534333218
:100C740031302F2E2D2C2B2A2928272625242322D8
:100C840021201F1E1D1C1B1A1B1C1D1E1F20212280
:100C9400333435363738393A3B4E4F5051504F4E36
:100CA40051525354555657583837363534333231F8
:100CB400302F2E2D2C2B2A292827262524232221A8
:100CC400201F1E1D1C1B1A191A1B1C1D1E1F202150
:100CD40031323334353637383951525354535251F3
:100CE4004E4F5051525354553736353433323130D8
:100CF4002F2E2D2C2B2A2928272625242322212078
:100D04001F1E1D1C1B1A1918191A1B1C1D1E1F201F
:100D14002F303132333435363754555657565554AF
:100D24004B4C4D4E4F505152363534333231302FB7
:100D34002E2D2C2B2A292827262524232221201F47
:100D44001E1D1C1B1A19181718191A1B1C1D1E1FEF
:100D54002D2E2F3031323334355758595A5958576C
:100D640048494A4B4C4D4E4F3534333231302F2E97
:100D74002D2C2B2A292827262524232221201F1E17
:100D84001D1C1B1A191817161718191A1B1C1D1EBF
:100D94002B2C2D2E2F303132335A5B5C5D5C5B5A29
:100DA40045464748494A4B4C34333231302F2E2D77
:100DB4002C2B2A292827262524232221201F1E1DE7
:100DC4001C1B1A1918171615161718191A1B1C1D8F
:100DD400292A2B2C2D2E2F30315D5E5F605F5E5DE6
:100DE4004243444546474849333231302F2E2D2C57
:100DF4002B2A292827262524232221201F1E1D1CB7
:100E04001B1A19181716151415161718191A1B1C5E
:100E14002728292A2B2C2D2E2F5A61686F68615A96
:100E24003F404142434445463231302F2E2D2C2B36
:100E34002A292827262524232221201F1E1D1C1B86
:100E44001A191817161514131415161718191A1B2E
:100E540025262728292A2B2C2D575E656C655E577D
:100E64003C3D3E3F4041424331302F2E2D2C2B2A16
:100E7400292827262524232221201F1E1D1C1B1A56
:100E84001918171615141312131415161718191AFE
:100E9400232425262728292A2B545B6269625B5464
:100EA400393A3B3C3D3E3F40302F2E2D2C2B2A29F6
:100EB4002827262524232221201F1E1D1C1B1A1926
:100EC40018171615141312111213141516171819CE
:100ED40021222324252627282951585F665F58514B
:100EE400363738393A3B3C3D2F2E2D2C2B2A2928D6
:100EF40027262524232221201F1E1D1C1B1A1918F6
:100F0400171615141312111011121314151617189D
:100F14001F20212223242526274E555C635C554E31
:100F2400333435363738393A2E2D2C2B2A292827B5
:100F3400262524232221201F1E1D1C1B1A191817C5
:100F4400161514131211100F10111213141516176D
:100F54001D1E1F2021222324254B52596059524B18
:100F640030313233343536372D2C2B2A2928272695
:100F74002524232221201F1E1D1C1B1A1918171695
:100F84001514131211100F0E0F101112131415163D
:100F94001B1C1D1E1F20212223484F565D564F48FF
:100FA4002D2E2F30313233342C2B2A292827262575
:100FB40024232221201F1E1D1C1B1A191817161565
:100FC40014131211100F0E0D0E0F1011121314150D
:100FD400191A1B1C1D1E1F2021454C535A534C45E6
:100FE4002A2B2C2D2E2F30312B2A29282726252455
:100FF400232221201F1E1D1C1B1A19181716151435
:10100400131211100F0E0D0C0D0E0F1011121314DC
:101014001718191A1B1C1D1E1F42495057504942CC
:101024002728292A2B2C2D2E2A2928272625242334
:101034002221201F1E1D1C1B1A1918171615141304
:101044001211100F0E0D0C0B0C0D0E0F10111213AC
:1010540015161718191A1B1C1D3F464D544D463FB3
:101064002425262728292A2B292827262524232214
:1010740021201F1E1D1C1B1A1918171615141312D4
:1010840011100F0E0D0C0B0A0B0C0D0E0F1011127C
:10109400131415161718191A1B3C434A514A433C9A
:1010A4002425262728292A2B2928272625242322D4
:1010B40021201F1E1D1C1B1A191817161514131294
:1010C40011100F0E0D0C0B0A0B0C0D0E0F1011123C
:1010D400131415161718191A1B3C434A514A433C5A
:1010E400EEDEBE7EEDDDBD7DEBDBBB7BE7D7B77708
:1010F4000102030A0405060B0708090C0E000F0D74
:10110400494E50555420583A2000494E50555420C9
:10111400593A2000494E505554204F5620005452FD
:101124005920414741494E005354415455533A20A4
:1011340047524F554E4400005354415455533A209E
:1011440053454152434800005354415455533A20A7
:1011540052455455524E00005354415455533A206D
:10116400494E5350454354005354415455533A2027
:1011740054414B454F4646005354415455533A202D
:101184004C414E44494E47004143434944454E5423
:101194003A2000004E4F5420464F554E4400583AD2
:1011A4000000593A00005A3A00002C000F931F9394
:1011B4008F939F9381E090E0080F191F0150104016
:1011C40049F083EE8A950000000000000000D1F78A
:1011D4000C94E0089F918F911F910F9108958F9324
:1011E4009F9388B19FEF981B98B99F918F91089511
:1011F4008F9380E088B984B38C7F84BB8F910895EA
:101204008F938FEF88B984B3836084BB8F910895E3
:101214000F931F938F939F930E94FA0808EB1BE090
:101224000E94D80881E088B98F3F31F0880F8395F8
:101234000E94D8080C9415099F918F911F910F91CA
:1012440008950F931F938F939F930E94FA0808EBBE
:101254001BE08FEF88B9803029F086950E94D8086A
:101264000C942C099F918F911F910F9108950F93C6
:101274008F9301BB82B18F7582B90000169A00006A
:1012840000000000169800008F910F9108950F93AD
:101294008F9301BB82B180688F7D82B90000169A5A
:1012A400000000000000169800008F910F9108952F
:1012B4008F9380E080BB81BB82B18F77806282B9DB
:1012C4000000169A0000000000008FB1169887FDF8
:1012D4000C94620982B18F7582B98FEF80BB8F91B4
:1012E40008950F931F938F939F9306E910E00E9434
:1012F400D80800E30E94390909E210E00E94D808E6
:1013040000E30E94390901E010E00E94D80800E3DC
:101314000E9439090E945A0908E30E9439090E946F
:101324005A0908E00E9439090E945A0901E00E9402
:1013340039090E945A0906E00E9439090E945A0993
:101344000EE00E9439090E945A099F918F911F91C2
:101354000F9108950F9301E00E9439090E945A09E0
:101364000F9108950F9300EC0E9439090E945A09C5
:101374000F9108958F939F9347EF4F30E9F3409374
:101384000B018FEF8A95F1F790910901907F903FBF
:1013940019F446950C94BF094F70907F490F9F91A3
:1013A4008F9108958F939F934F9347EF4F3069F038
:1013B40040930B018FEF8A95F1F790910901907F8B
:1013C400903F99F746950C94D8094F919F918F912E
:1013D40008950F938F939F93F0E1E4EE80E090E003
:1013E4004591401719F001960C94F209F0E1E4EFED
:1013F400E80FF91F44919F918F910F9108950F93D6
:101404001F938F930F92143620F41A3088F40C949F
:10141400290A02E084E6089F101518F40A950C9432
:101424000D0A80E3080F0E9449090E945A09101905
:1014340009E08AE0089F101518F40A950C941C0A18
:1014440080E3080F0E9449090E945A091019012FCC
:1014540080E3080F0E9449090E945A090F908F9156
:101464001F910F9108950F931F934F938F93102FF4
:10147400F1E1E2EA0591003031F00E9449090E944D
:101484005A090C943C0A0E94010A8F914F911F91B2
:101494000F9108950F931F934F938F93F1E1EEEA09
:1014A4000591003031F00E9449090E945A090C94B8
:1014B400520AF1E1E6EA0591003031F00E9449094F
:1014C4000E945A090C945D0A0E94010A8F914F915F
:1014D4001F910F9108950F931F932F938F930F9242
:1014E4001F92FF93EF93802FF1E1EEEA0591003014
:1014F40031F00E9449090E945A090C94780AF1E1DA
:10150400EAEA0591003031F00E9449090E945A0923
:101514000C94830A082FF0E0E4EE80E4189F80E046
:10152400000E181EE00DF11D1491120F0E94010A05
:10153400EF91FF911F900F908F912F911F910F9119
:1015440008950F931F932F938F936F937F930E940C
:10155400AC09F1E1ECE30591003031F00E94490956
:101564000E945A090C94AD0A0E94B409062F172F41
:1015740029E00E94350A0E944C0A0E946D0A00ED7F
:1015840017E00E94D8087F916F918F912F911F913E
:101594000F9108950F931F932F938F936F937F93BE
:1015A4000E94AC09F1E1ECE40591003031F00E94B5
:1015B40049090E945A090C94D60A0E94B409062FBC
:1015C400172F29E00E94350A0E944C0A0E946D0AD6
:1015D40000ED17E00E94D8087F916F918F912F91B1
:1015E4001F910F9108950F931F932F938F9329E0C9
:1015F4000E94AC09802FF1E1ECE50591003031F057
:101604000E9449090E945A090C94FF0A082F0E945B
:10161400B4090E94350A0E944C0A0E946D0A0E9475
:10162400F10808E813E10E94D8080E94F10808E8CC
:1016340013E10E94D8080E94F10808E813E10E940F
:10164400D8080E94F10808E813E10E94D8080E9413
:10165400F10808E813E10E94D8080E94F10808E89C
:1016640013E10E94D8088F912F911F910F91089533
:101674000C94570D8FEF80BB81B1806F81B98FEFD0
:1016840087B983B3836083BB8FE080930A018DB1F4
:1016940080618DB98AB18E7F8AB98BB181608BB933
:1016A40082E0809369008AB18D7F8AB98BB18260B0
:1016B4008BB988E0809369000E9473092224332443
:1016C400662777270E94AC09F1E1E4E00591003038
:1016D40031F00E9449090E945A090C94680B55275D
:1016E4000E94BC090E94D409042F0E94EB094A30CD
:1016F400B8F7540F042F80E3080F0E9449090E9491
:101704005A090E94BC090E94D409042F0E94EB09C3
:101714004F3051F14A30A8F78AE0589F040E502DFB
:10172400042F80E3080F0E9449090E945A090E946D
:10173400BC090E94D409042F0E94EB094F30A1F088
:101744004A30A8F78AE0589F81E0181680F7040E03
:1017540080E0881F813058F7502D042F80E3080F54
:101764000E9449090E945A09503418F4252E0C94F9
:10177400DB0B0E94AC09F1E1E8E10591003031F0A6
:101784000E9449090E945A090C94BF0B0E94B40993
:10179400F1E1E2E20591003031F00E9449090E9432
:1017A4005A090C94CC0B00E315E70E94D8080C945A
:1017B400640B0E94B409F1E1EEE00591003031F0D0
:1017C4000E9449090E945A090C94DF0B55270E9474
:1017D400BC090E94D409042F0E94EB094A30B8F7CF
:1017E400540F042F80E3080F0E9449090E945A09EC
:1017F4000E94BC090E94D409042F0E94EB094F30B7
:1018040051F14A30A8F78AE0589F040E502D042F56
:1018140080E3080F0E9449090E945A090E94BC09EA
:101824000E94D409042F0E94EB094F30A1F04A30E2
:10183400A8F78AE0589F81E0181680F7040E80E02C
:10184400881F813058F7502D042F80E3080F0E9421
:1018540049090E945A09503418F4352E0C94520C3C
:101864000E94AC09F1E1E8E10591003031F00E94F9
:1018740049090E945A090C94360C0E94B409F1E1FA
:10188400E2E20591003031F00E9449090E945A09B0
:101894000C94430C00E315E70E94D8080C94640BE5
:1018A4000E94AC09F1E1ECE20591003031F00E94B4
:1018B40049090E945A090C94560C0E94B409002745
:1018C400112722270E94350A0E944C0A0E946D0AA1
:1018D4008DB382608DBB8DB380608DBB7894FFCF58
:1018E4008DB380708DBB8DB381608DBBF8940E94E5
:1018F4000A09882780939B008FEF80939A0081E0E8
:101904008093910081E28093900020E00E94AC09D2
:10191400F1E1ECE60591003031F00E9449090E94A2
:101924005A090C948C0C0E94B409002711270E94B8
:10193400350A0E944C0A0E946D0A2395293028F426
:1019440008EB1BE00E94D808E1CF7894621511F4EB
:101954007315F1F06F3328F40E94A30A63950C9475
:10196400A80C0E94A30A73950E94A30A621511F49D
:10197400731571F0613028F00E94A30A6A950C94E3
:10198400B80C0E94A30A73950E94A30A0C94A80C95
:101994000E94A30AF894882780939B0080E4809394
:1019A4009A0081E08093910081E280939000062F59
:1019B400172F0E94F50A03C08FEF282E00C08DB3A5
:1019C40080708DBB8DB380708DBBF8948827809315
:1019D4009B008FEF80939A0081E08093910081E2D5
:1019E400809390000E94CC0A713018F07A950C9480
:1019F400F40C0E94CC0A613018F06A950C94FB0C2C
:101A04000E94CC0A29E00E94AC09F1E1ECE70591BF
:101A1400003031F00E9449090E945A090C94090DC2
:101A24000E94B409002711270E94350A0E944C0A1B
:101A34000E946D0A2A95213028F008EB1BE00E94D1
:101A4400D808E1CF0E942309882780939B0080E077
:101A540080939A0081E08093910081E280939000CA
:101A64000E94AC09F1E1ECE80591003031F00E94EC
:101A740049090E945A090C94360D0E94B4098FEF4B
:101A8400281641F0022D132D0E94350A0E944C0A9B
:101A94000C94570DF1E1E8E90591003031F00E9412
:0E1AA40049090E945A090C944E0D0C94570DDE
:00000001FF
