:020000020000FC
:0200000006C038
:1000040057C0001F03E002AA015502E000936900F3
:100014000DB301600DBB789470E081E003B303601D
:1000240003BB0FEF07B90AB10C7F0AB900000BB18B
:1000340003600BB930E0F0E0E6E01591259104B3DC
:100044000C7F012B04BB28B941EB57EC62E122245D
:1000540033244424280E371E471E2416350646062C
:1000640008F4F8CF3395343028F7E7CF43EE5CE655
:1000740065E0222433244424280E371E471E241608
:100084003506460608F4F8CF489B03C0499B01C0D7
:10009400FBCF43EE5CE665E0222433244424280E9F
:1000A400371E471E24163506460608F4F8CFDACF65
:0C00B40004B30C7F04BB00E008B9FFCFD0
:00000001FF
