:020000020000FC
:10000000CAC0EEDEBE7EEDDDBD7DEBDBBB7BE7D7A0
:10001000B7773132334134353642373839432A30B5
:1000200023440F938F939F93F0E0E2E080E090E011
:100030004591401711F00196FBCFF0E0E2E1E80FA7
:10004000F91F44919F918F910F910F931F938F935D
:100050009F9381E090E0080F191F0150104041F07C
:1000600083EE8A950000000000000000D1F7F5CF74
:100070009F918F911F910F9108950F938F9301BBC3
:1000800082B18F7582B90000169A0000000000004E
:10009000169800008F910F9108950F938F9301BBD5
:1000A00082B180688F7D82B90000169A000000003E
:1000B0000000169800008F910F9108958F9380E0B3
:1000C00080BB81BB82B18F77806282B90000169AB3
:1000D0000000000000008FB1169887FDF7CF82B1B5
:1000E0008F7582B98FEF80BB8F9108950F931F9307
:1000F0008F939F9306E910E0A8DF00E3BEDF09E2DB
:1001000010E0A3DF00E3B9DF01E010E09EDF00E3D1
:10011000B4DFD4DF08E3B1DFD1DF08E0AEDFCEDF4C
:1001200001E0ABDFCBDF06E0A8DFC8DF0EE0A5DF34
:10013000C5DF9F918F911F910F9108958F939F938A
:1001400047EF4F30E9F340930B018FEF8A95F1F7BA
:1001500090910901907F903F11F44695F2CF4F7036
:10016000907F490F9F918F9108958F939F934F9305
:1001700047EF4F3061F040930B018FEF8A95F1F715
:1001800090910901907F903F99F74695F2CF4F915A
:100190009F918F9108958FEF80BB81B1806F81B95E
:1001A0008FE080930A018FEF87B983B3836083BBAD
:1001B0009DDF8827C3DFD9DF042F33DF042F6DDFF6
:1001C0007DDF83958031B1F700EC57DF77DF88273B
:1001D000B5DFCBDF042F25DF042F5FDF6FDF8395D3
:1001E0008131B1F700EC01E048DF68DFE2CFFFCFFB
:00000001FF
