:020000020000FC
:1000000015C16F937F938F933F934F935F930F939C
:100010002F9333274427552700E021E0320F401F5C
:10002000501F36174707580708F4F8CF2F910F9144
:100030005F914F913F918F917F916F9108950F93B1
:100040002F936F937F938F9364E170E080E018E0CB
:10005000212F0FEF021B00930B01D3DF20E800914B
:1000600009010223003039F026952830C1F7169592
:10007000103071F7ECCF07D0120F8F917F916F91F5
:100080002F910F9108951F930F932F936F937F9349
:100090008F9364E170E080E018E0212F0FEF021BE6
:1000A00000930B01AEDF20E800910901022300302C
:1000B00099F326952830C1F71695103071F78F9176
:1000C0007F916F912F910F911F910895113111F42C
:1000D00011E03DC0123111F414E039C0143111F4B3
:1000E00017E035C0183111F41EE031C0113211F49F
:1000F00012E02DC0123211F415E029C0143211F4AF
:1001000018E025C0183211F410E021C0113411F4A8
:1001100013E01DC0123411F416E019C0143411F4A8
:1001200019E015C0183411F41FE011C0113811F492
:100130001AE00DC0123811F41BE009C0143811F494
:100140001CE005C0183811F41DE001C01FEF089530
:100150000F932F936F937F938F9360E47DE083E001
:1001600023E00FEF08B94DDF002708B94ADF2A95D1
:10017000203009F0F6CF8F917F916F912F910F91E1
:1001800008950F936F937F938F9360E673EE86E1EC
:1001900004B30C7F036004BB0FEF08B932DF04B374
:1001A0000C7F006004BB002708B98F917F916F918D
:1001B0000F9108950F932F931F9304B30C7F026048
:1001C00004BB30E000E02AE03ADF80DF1E3061F05F
:1001D0001A30D0F7329F010E101E101619F4302D70
:1001E00038B9F2CFB5DFEDCF1F912F910F91089560
:1001F0000F932F931F9304B30C7F016004BB40E067
:1002000000E02AE01CDF62DF1F3061F01A30D0F717
:10021000429F010E101E101619F4402D48B9F2CF5E
:1002200097DFEDCF1F912F910F9108950FE000936D
:100230000A010FEF07B903B3036003BBA2DFBADF04
:10024000D7DF349F00E0101611F082DFF7CF04B340
:100250000C7F006004BB502D58B9F1DEEFCFFFCF0B
:00000001FF
